:100000000C943E000C945B000C945B000C945B0021
:100010000C945B000C945B000C945B000C945B00F4
:100020000C945B000C945B000C945B000C945B00E4
:100030000C945B000C945B000C945B000C945B00D4
:100040000C945B000C945B000C945B000C945B00C4
:100050000C945B000C945B000C945B000C945B00B4
:100060000C945B000C945B000C945B000C945B00A4
:100070000C945B000C945B000C945B0011241FBE7D
:10008000CFEFD0E1DEBFCDBF11E0A0E0B1E0E2EE06
:10009000F0E002C005900D92A030B107D9F711E051
:1000A000A0E0B1E001C01D92A030B107E1F70E94CD
:1000B0006C000C946F000C9400000895089508954E
:1000C0000895089508950895089508950895089548
:1000D00008950E945D0008950E945D00FFCFF8948E
:0200E000FFCF50
:00000001FF
