:100000000C943E000C945B000C945B000C945B0021
:100010000C945B000C94B8090C945B000C945B008E
:100020000C945B000C945B000C945B000C945B00E4
:100030000C945B000C945B000C945B000C945B00D4
:100040000C945B000C945B000C94D40A0C945B0041
:100050000C94C5090C945B000C945B000C945B0041
:100060000C945B000C945B000C945B000C945B00A4
:100070000C945B000C945B000C945B0011241FBE7D
:10008000CFEFD0E1DEBFCDBF11E0A0E0B1E0E0E115
:10009000F0E202C005900D92A031B107D9F711E04E
:1000A000A0E1B1E001C01D92A53AB107E1F70E94BD
:1000B000F80A0C9406100C94000091B121E030E095
:1000C000082E02C0220F331F0A94E2F7922B91B937
:1000D00092B1522F5095952392B990EA9A95F1F7E3
:1000E00091B1952391B992B1922B92B946E14A957B
:1000F000F1F790B140E54A95F1F740B150E0082E94
:1001000002C0559547950A94E2F740FD02C082E08F
:100110000895492F50E04223532302C05595479537
:100120008A95E2F7842F0895882319F08130E1F051
:10013000089521B181E090E002C0880F991F6A956F
:10014000E2F7382F282B21B992B18095982392B9E4
:1001500094E19A95F1F791B1982391B982B1832BEB
:1001600082B900C000C0089521B181E090E002C0D2
:10017000880F991F6A95E2F7382F282B21B992B181
:100180008095982392B993E09A95F1F7000091B188
:10019000982391B982B1832B82B982E18A95F1F7D4
:1001A000089591B141E050E0082E02C0440F551F60
:1001B0000A94E2F7942B91B992B1342F309593239E
:1001C00092B9000091B1932391B992B1942B92B955
:1001D00093E09A95F1F7000020B190E19A95F1F73C
:1001E00000C030E02423352302C0359527958A9539
:1001F000E2F7822F089561E070E0082E02C0660FDA
:10020000771F0A94E2F7962F562F509521B1262B8F
:1002100021B922B1252322B9000021B1252321B91A
:1002200022B1262B22B923E02A95F1F7000020B154
:1002300030E13A95F1F700C030E026233723082E4D
:1002400002C0359527950A94E2F741E0213009F084
:1002500040E021B1292B21B922B1252322B9000088
:1002600021B1252321B922B1292B22B923E02A95D6
:10027000F1F7000020B130E13A95F1F700C030E02D
:1002800026233723082E02C0359527950A94E2F7D6
:10029000213009F4CBC021B1292B21B922B125236A
:1002A00022B9000021B1252321B922B1292B22B97D
:1002B00023E02A95F1F7000020B130E13A95F1F7FB
:1002C00000C030E026233723082E02C0359527953D
:1002D0000A94E2F7213009F4B6C021B1292B21B9E3
:1002E00022B1252322B9000021B1252321B922B151
:1002F000292B22B923E02A95F1F7000020B130E143
:100300003A95F1F700C030E026233723082E02C0CB
:10031000359527950A94E2F7213009F492C021B16E
:10032000292B21B922B1252322B9000021B125238F
:1003300021B922B1292B22B923E02A95F1F7000037
:1003400020B130E13A95F1F700C030E026233723A1
:10035000082E02C0359527950A94E2F7213009F45A
:100360006EC021B1292B21B922B1252322B9000069
:1003700021B1252321B922B1292B22B923E02A95C5
:10038000F1F7000020B130E13A95F1F700C030E01C
:1003900026233723082E02C0359527950A94E2F7C5
:1003A000213009F44AC021B1292B21B922B12523DA
:1003B00022B9000021B1252321B922B1292B22B96C
:1003C00023E02A95F1F7000020B130E13A95F1F7EA
:1003D00000C030E026233723082E02C0359527952C
:1003E0000A94E2F7213039F121B1292B21B922B148
:1003F000252322B9000021B1252321B922B1292BBF
:1004000022B993E09A95F1F7000020B130E13A95D6
:10041000F1F700C030E02623372302C03595279539
:100420008A95E2F7213021F0842F0895426033CF7E
:100430004068842F08954064D7CF4062B4CF4061B4
:1004400090CF48606CCF446048CFCF93DF93D82FD4
:10045000C62F81700E949400D6958D2F81706C2FCD
:100460000E949400D6958D2F81706C2F0E9494006D
:10047000D6958D2F81706C2F0E949400D6958D2F6C
:1004800081706C2F0E949400D6958D2F81706C2FF7
:100490000E949400D6958D2F81706C2F0E9494003D
:1004A0008D2F86956C2F0E94940000C000C0000024
:1004B000DF91CF9108958F929F92AF92BF92CF928A
:1004C000DF92EF92FF920F931F93CF93DF93CDB7FD
:1004D000DEB729970FB6F894DEBF0FBECDBFF82E5A
:1004E00019821A821F82188681B191E0C92ED12CFF
:1004F0000F2C02C0CC0CDD1C0A94E2F70C2D8C29C9
:1005000081B982B11C2D1095812382B980EA8A9528
:10051000F1F781B1812381B982B18C2982B996E149
:100520009A95F1F720B180E58A95F1F780B190E0D6
:100530000F2C02C0959587950A94E2F780FD86C03E
:100540008A818823C9F11981612F6095669570E0D1
:1005500060957095882777FD8095982F0E94FA0BFB
:1005600010FF0FC0472F382F292F862F942FA32F2E
:10057000B22FBC01CD0120E030E040E05FE30E94FB
:100580002C0B382F292F862F972FA32FB22FBC018A
:10059000CD0129960FB6F894DEBF0FBECDBFDF9117
:1005A000CF911F910F91FF90EF90DF90CF90BF9070
:1005B000AF909F908F9008956885662309F441C09D
:1005C00070E080E090E00E94F80B6B017C01698193
:1005D000669570E080E090E00E94FA0B20E030E049
:1005E00040E85EE30E942B0B4B015C016F8170E0E1
:1005F00080E090E00E94F80B9B01AC01C701B601BE
:100600000E942B0BA70196010E94900B9B01AC014D
:10061000C501B4010E942C0B20E030E040E251E41F
:100620000E94D90C20E030E040E05FE30E942C0BF8
:100630000E94350C20E030E040E251E40E94900B33
:10064000A0CF60E070E080E090E09BCF822F90E050
:100650008C219D210F2C02C0959587950A94E2F775
:10066000882309F06DCF6F2D0E94940080E06F2DDC
:100670000E94940081E06F2D0E94940081E06F2D14
:100680000E94940080E06F2D0E94940080E06F2D06
:100690000E94940081E06F2D0E94940081E06F2DF4
:1006A0000E94940000C000C0000080E06F2D0E94F6
:1006B000940080E06F2D0E94940081E06F2D0E94D5
:1006C000940080E06F2D0E94940080E06F2D0E94C6
:1006D000940080E06F2D0E94940081E06F2D0E94B5
:1006E000940080E06F2D0E94940000C000C00000C4
:1006F00049EE53E081B1802B81B982B1812382B967
:10070000000081B1812381B982B1802B82B993E04D
:100710009A95F1F7000080B190E19A95F1F700C049
:1007200090E08C219D210F2C02C0959587950A940D
:10073000E2F721E0813009F020E081B1802B81B91E
:1007400082B1812382B9000081B1812381B982B154
:10075000802B82B983E08A95F1F7000080B190E1A7
:100760009A95F1F700C090E08C219D210F2C02C0DA
:10077000959587950A94E2F7813009F457C281B1C3
:10078000802B81B982B1812382B9000081B181239C
:1007900081B982B1802B82B983E08A95F1F700009C
:1007A00080B190E19A95F1F700C090E08C219D21F5
:1007B0000F2C02C0959587950A94E2F7813009F4D1
:1007C00033C281B1802B81B982B1812382B900000B
:1007D00081B1812381B982B1802B82B983E08A956E
:1007E000F1F7000080B190E19A95F1F700C090E038
:1007F0008C219D210F2C02C0959587950A94E2F7D4
:10080000813009F40FC281B1802B81B982B181237B
:1008100082B9000081B1812381B982B1802B82B974
:1008200083E08A95F1F7000080B190E19A95F1F7A5
:1008300000C090E08C219D210F2C02C095958795DA
:100840000A94E2F7813009F4EBC181B1802B81B9C0
:1008500082B1812382B9000081B1812381B982B143
:10086000802B82B983E08A95F1F7000080B190E196
:100870009A95F1F700C090E08C219D210F2C02C0C9
:10088000959587950A94E2F7813009F4D3C181B137
:10089000802B81B982B1812382B9000081B181238B
:1008A00081B982B1802B82B983E08A95F1F700008B
:1008B00080B190E19A95F1F700C090E08C219D21E4
:1008C0000F2C02C0959587950A94E2F7813009F4C0
:1008D000AFC181B1802B81B982B1812382B900007F
:1008E00081B1812381B982B1802B82B983E08A955D
:1008F000F1F7000080B190E19A95F1F700C090E027
:100900008C219D210F2C02C0959587950A94E2F7C2
:10091000813009F47BC181B1802B81B982B18123FF
:1009200082B980EA8A95F1F781B1812381B982B1D8
:10093000802B82B996E19A95F1F780B180E58A958E
:10094000F1F780B180E06F2D0E94940080E06F2D60
:100950000E94940081E06F2D0E94940081E06F2D31
:100960000E94940080E06F2D0E94940080E06F2D23
:100970000E94940081E06F2D0E94940081E06F2D11
:100980000E94940000C000C0000080E06F2D0E9413
:10099000940081E06F2D0E94940081E06F2D0E94F1
:1009A000940081E06F2D0E94940081E06F2D0E94E1
:1009B000940081E06F2D0E94940080E06F2D0E94D2
:1009C000940081E06F2D0E94940000C000C00000E0
:1009D000FE013196AE01465F5F4FD1C081B1802BE1
:1009E00081B982B1812382B9000081B1812381B9AB
:1009F00082B1802B82B983E08A95F1F7000080B143
:100A000090E19A95F1F700C090E08C219D210F2C88
:100A100002C0959587950A94E2F7813009F416C1D2
:100A200081B1802B81B982B1812382B9000081B16B
:100A3000812381B982B1802B82B983E08A95F1F755
:100A4000000080B190E19A95F1F700C090E08C2110
:100A50009D210F2C02C0959587950A94E2F781306D
:100A600009F4F2C081B1802B81B982B1812382B9AE
:100A7000000081B1812381B982B1802B82B983E0EA
:100A80008A95F1F7000080B190E19A95F1F700C0E6
:100A900090E08C219D210F2C02C0959587950A949A
:100AA000E2F7813009F4CEC081B1802B81B982B1E7
:100AB000812382B9000081B1812381B982B1802B69
:100AC00082B983E08A95F1F7000080B190E19A95B0
:100AD000F1F700C090E08C219D210F2C02C095956C
:100AE00087950A94E2F7813009F4AAC081B1802B7E
:100AF00081B982B1812382B9000081B1812381B99A
:100B000082B1802B82B983E08A95F1F7000080B131
:100B100090E19A95F1F700C090E08C219D210F2C77
:100B200002C0959587950A94E2F7813009F486C052
:100B300081B1802B81B982B1812382B9000081B15A
:100B4000812381B982B1802B82B983E08A95F1F744
:100B5000000080B190E19A95F1F700C090E08C21FF
:100B60009D210F2C02C0959587950A94E2F781305C
:100B700009F462C02193E417F50709F4E1CC81B1CF
:100B8000802B81B982B1812382B9000081B1812398
:100B900081B982B1802B82B993E09A95F1F7000078
:100BA00080B190E19A95F1F700C090E08C219D21F1
:100BB0000F2C02C0959587950A94E2F721E08130C9
:100BC00009F020E081B1802B81B982B1812382B903
:100BD000000081B1812381B982B1802B82B983E089
:100BE0008A95F1F7000080B190E19A95F1F700C085
:100BF00090E08C219D210F2C02C0959587950A9439
:100C0000E2F7813009F0EACE2260E8CE20682F3F7B
:100C100009F081CE4150504009F47DCE00006ACDEC
:100C2000206113CE2860EFCD2460CBCD2260A7CD0C
:100C300020644FCE20622BCE20689CCF206478CFDA
:100C4000206254CF206130CF28600CCF2460E8CEE2
:100C5000EF92FF921F93CF93DF93182F81B121E082
:100C6000E22EF12C012E02C0EE0CFF1C0A94E2F7DA
:100C7000DE2D8E2981B982B1CE2DC0958C2382B90B
:100C800080EA8A95F1F781B18C2381B982B18E29EE
:100C900082B996E19A95F1F720B180E58A95F1F74E
:100CA00080B190E0012E02C0959587950A94E2F7F5
:100CB00080FD06C0DF91CF911F91FF90EF900895C6
:100CC000822F90E08E219F21012E02C0959587955D
:100CD0000A94E2F7882371F7612F0E94940080E064
:100CE000612F0E94940081E0612F0E94940081E0B6
:100CF000612F0E94940080E0612F0E94940080E0A8
:100D0000612F0E94940081E0612F0E94940081E095
:100D1000612F0E94940000C000C0000080E0612F9D
:100D20000E94940080E0612F0E94940081E0612F76
:100D30000E94940080E0612F0E94940080E0612F67
:100D40000E94940080E0612F0E94940081E0612F56
:100D50000E94940080E0612F0E94940000C000C0B7
:100D6000000049EE53E081B18D2B81B982B18C2313
:100D700082B9000081B18C2381B982B18D2B82B9F7
:100D800093E09A95F1F7000080B190E19A95F1F720
:100D900000C090E08E219F21012E02C0959587957D
:100DA0000A94E2F721E0813009F020E081B18D2B37
:100DB00081B982B18C2382B9000081B18C2381B9C1
:100DC00082B18D2B82B983E08A95F1F7000080B162
:100DD00090E19A95F1F700C090E08E219F21012EBD
:100DE00002C0959587950A94E2F7813009F42FC1E6
:100DF00081B18D2B81B982B18C2382B9000081B180
:100E00008C2381B982B18D2B82B983E08A95F1F769
:100E1000000080B190E19A95F1F700C090E08E213A
:100E20009F21012E02C0959587950A94E2F78130A3
:100E300009F421C181B18D2B81B982B18C2382B992
:100E4000000081B18C2381B982B18D2B82B983E0FE
:100E50008A95F1F7000080B190E19A95F1F700C012
:100E600090E08E219F21012E02C0959587950A94CE
:100E7000E2F7813009F4FDC081B18D2B81B982B1D7
:100E80008C2382B9000081B18C2381B982B18D2B72
:100E900082B983E08A95F1F7000080B190E19A95DC
:100EA000F1F700C090E08E219F21012E02C09595A0
:100EB00087950A94E2F7813009F4D9C081B18D2B6E
:100EC00081B982B18C2382B9000081B18C2381B9B0
:100ED00082B18D2B82B983E08A95F1F7000080B151
:100EE00090E19A95F1F700C090E08E219F21012EAC
:100EF00002C0959587950A94E2F7813009F4B5C050
:100F000081B18D2B81B982B18C2382B9000081B16E
:100F10008C2381B982B18D2B82B983E08A95F1F758
:100F2000000080B190E19A95F1F700C090E08E2129
:100F30009F21012E02C0959587950A94E2F7813092
:100F400009F491C081B18D2B81B982B18C2382B912
:100F5000000081B18C2381B982B18D2B82B983E0ED
:100F60008A95F1F7000080B190E19A95F1F700C001
:100F700090E08E219F21012E02C0959587950A94BD
:100F8000E2F7813009F465C081B18D2B81B982B15E
:100F90008C2382B980EA8A95F1F781B18C2381B9DB
:100FA00082B18D2B82B996E19A95F1F780B180E5F7
:100FB0008A95F1F780B180E0612F0E94940080E073
:100FC000612F0E94940081E0612F0E94940081E0D3
:100FD000612F0E94940080E0612F0E94940080E0C5
:100FE000612F0E94940081E0612F0E94940081E0B3
:100FF000612F0E94940000C000C0000080E0612FBB
:101000000E94940081E0612F0E94940081E0612F92
:101010000E94940081E0612F0E94940081E0612F82
:101020000E94940081E0612F0E94940080E0612F73
:101030000E94940081E0612F0E94940000C000C0D3
:101040000000DF91CF911F91FF90EF9008952260F3
:10105000CFCE20682F3F09F097CF4150504009F480
:1010600093CF000080CE20646DCF206249CF2061F5
:1010700025CF286001CF2460DDCECF93DF930F9280
:10108000CDB7DEB7F894119A1298198299819830E9
:10109000E0F4686F32E091E29A95F1F7000022B136
:1010A000962F991F9927991F9E5F922792B991E2D7
:1010B0009A95F1F7000092B1932792B9660F998142
:1010C0009F5F99839981983030F319829981973085
:1010D000D8F432E091E29A95F1F7000022B1982F0E
:1010E000991F9927991F9E5F922792B991E29A952D
:1010F000F1F7000092B1932792B9880F99819F5F11
:1011000099839981973030F382B194E0892782B92D
:1011100078940F90DF91CF91089581B1876081B964
:1011200008958370886360E00E943D0886E060E077
:101130000E943D08089588E360E00E943D0886E033
:1011400060E00E943D0881E060E00E943D0882E08E
:1011500060E00E943D08089581E060E00E943D0843
:1011600082E060E00E943D080895CF93DF93EA019A
:101170006295660F660F607C680F862F806860E05E
:101180000E943D08209739F08C2F219662E00E9442
:101190003D082097C9F7DF91CF910895CF93DF9352
:1011A000EA016295660F660F607C680F862F806883
:1011B00060E004C02196FC01849162E00E943D0839
:1011C000CE01FE0124912223A9F7DF91CF9108954A
:1011D000CF93DF930F92CDB7DEB76295660F660FA0
:1011E000607C680F862F806860E049830E943D081C
:1011F0004981842F62E00E943D080F90DF91CF91DA
:101200000895CF93E42FF0E0C4916295660F660FC6
:10121000607C680F862F806860E00E943D088C2FFC
:1012200062E00E943D08CF9108950F931F93CF93E2
:10123000DF930F92CDB7DEB78B018770880F880FD1
:10124000880F806460E00E943D081982898188309F
:1012500068F4F8010F5F1F4F849162E00E943D081F
:1012600089818F5F89838981883098F30F90DF911E
:10127000CF911F910F91089582E060E00E943D0898
:1012800008950895282F30E021703070220F331F09
:10129000220F331F4170422B486070E06170707004
:1012A000660F771F842F862B60E00E943D0808950B
:1012B00081E58CBD84B1806A84B90895ECE6F0E0E4
:1012C000808182608083E8E6F0E0808182608083B4
:1012D000089583E00E945B02DC01CB018093120140
:1012E00090931301A0931401B093150108950E94E7
:1012F0008D088BE48093C5001092C400E1ECF0E00F
:1013000088E180838EE08093C20080818068808342
:101310000E9458090E945E090E94330A0E94D10A65
:101320008AB180638AB98AB18C608AB984B18C61D0
:1013300084B98AB1806C8AB982B1806F82B981B177
:10134000806F81B9219883E00E94280678940895DF
:101350008BE48093C5001092C400E1ECF0E088E1DA
:1013600080838EE08093C2008081806880830895AE
:101370001F920F920FB60F9211248F9385B18F9108
:101380000F900FBE0F901F9018951F920F920FB6DF
:101390000F9211248F939F93EF93FF9380911601E7
:1013A0009091C600E7E1F1E0E80FF11D90838F5FB7
:1013B00080931601FF91EF919F918F910F900FBE37
:1013C0000F901F9018959091C00095FFFCCF8093CF
:1013D000C60008959C01FC014491442351F00196FC
:1013E000F90124913091C00035FFFCCF2093C60055
:1013F000F1CF0895FC019081992351F031968091AD
:10140000C00085FFFCCF9093C60091919923B9F756
:1014100008950DB407FEFDCF8EB508958EBD0DB4B1
:1014200007FEFDCF0895FC018191882349F08E2F9E
:1014300081508EBD0DB407FEFDCF81918823B9F791
:1014400008959C01FC014491442361F00196F90147
:1014500024912EBD0DB407FEFDCF9C01FC014491EB
:101460004423A1F7089581B18F7881B982B1806753
:1014700082B914BC85B5856085BD83EC87BDEEE679
:10148000F0E08081816080830895CF93DF9300D066
:10149000CDB7DEB780B14091100184FD03C0442375
:1014A00009F449C0242F30E050B180B191E084FDAF
:1014B00090E081E055FD80E0892390E08223932332
:1014C000009709F43FC082E08093110180931001DE
:1014D00021E030E040B180B191E085FF90E081E013
:1014E00044FF80E0892390E082239323009711F04A
:1014F0001092100180B186FD19C01A82198289816B
:101500009A812FE08F3F920758F489819A81019642
:101510009A83898389819A812FE08F3F9207A8F36C
:1015200080B186FD03C084E0809311010F900F907D
:10153000DF91CF91089581E08093100121E030E0A8
:1015400041E0B2CF50B180B191E085FF22C081E08F
:1015500054FD17C0892390E082239323009749F01C
:1015600081E08093110182E08093100121E030E05E
:10157000B1CF21E030E0423009F4ACCF20E030E0E0
:10158000A9CF80E0892390E082239323009741F73D
:10159000F0CF90E081E054FFDDCFF3CF80911101D7
:1015A00008951092110108951F920F920FB60F9295
:1015B00011242F933F934F935F936F937F938F9358
:1015C0009F93AF93BF93EF93FF930E94450AFF91C0
:1015D000EF91BF91AF919F918F917F916F915F91AB
:1015E0004F913F912F910F900FBE0F901F90189524
:1015F0000E94770909E619E0C0E0D1E0F8010995F9
:1016000000D000D000D0ADB7BEB71296DC93CE9319
:1016100011978091120190911301A0911401B09142
:101620001501EDB7FEB783839483A583B6830E942B
:101630003C0D8FE79AE1A6E081509040A040E1F791
:1016400000C00000ADB7BEB716960FB6F894BEBF87
:101650000FBEADBFD3CF5058BB27AA270ED058C15D
:1016600049D130F04ED120F031F49F3F11F41EF4F7
:101670003EC10EF4E095E7FB0BC1E92F5AD180F390
:10168000BA17620773078407950718F071F49EF57F
:1016900089C10EF4E0950B2EBA2FA02D0B01B901D4
:1016A00090010C01CA01A0011124FF27591B99F0D8
:1016B000593F50F4503E68F11A16F040A22F232FE4
:1016C000342F4427585FF3CF469537952795A79534
:1016D000F0405395C9F77EF41F16BA0B620B730BDB
:1016E000840BBAF09150A1F0FF0FBB1F661F771F4C
:1016F000881FC2F70EC0BA0F621F731F841F48F401
:10170000879577956795B795F7959E3F08F0B3CF86
:101710009395880F08F09927EE0F97958795089570
:101720000CD0F6C0EED040F0E5D030F021F45F3FB1
:1017300019F0AEC0511137C1DAC0FBD098F399232C
:10174000C9F35523B1F3951B550BBB27AA27621785
:101750007307840738F09F5F5F4F220F331F441FCA
:10176000AA1FA9F333D00E2E3AF0E0E830D0915002
:101770005040E695001CCAF729D0FE2F27D0660FEF
:10178000771F881FBB1F261737074807AB07B0E82E
:1017900009F0BB0B802DBF01FF2793585F4F2AF044
:1017A0009E3F510568F074C0FEC05F3FECF3983E69
:1017B000DCF3869577956795B795F7959F5FC9F7A1
:1017C000880F911D9695879597F90895E1E0660F2A
:1017D000771F881FBB1F621773078407BA0720F0A3
:1017E000621B730B840BBA0BEE1F88F7E09508950C
:1017F000E89409C097FB3EF49095809570956195AB
:101800007F4F8F4F9F4F9923A9F0F92F96E9BB2760
:101810009395F695879577956795B795F111F8CFDC
:10182000FAF4BB0F11F460FF1BC06F5F7F4F8F4F47
:101830009F4F16C0882311F096E911C0772321F03D
:101840009EE8872F762F05C0662371F096E8862FD5
:1018500070E060E02AF09A95660F771F881FDAF72C
:10186000880F9695879597F9089585D080F09F37D2
:1018700040F491110EF097C060E070E080E89FEBBB
:10188000089526F41B16611D711D811D07C021C01E
:1018900097F99F6780E870E060E00895882371F40D
:1018A000772321F09850872B762F07C0662311F4F9
:1018B00099270DC09051862B70E060E02AF09A9530
:1018C000660F771F881FDAF7880F9695879597F927
:1018D00008959F3F31F0915020F487957795679553
:1018E000B795880F911D9695879597F908959FEF65
:1018F00080EC089500240A941616170618060906A7
:10190000089500240A941216130614060506089575
:10191000092E0394000C11F4882352F0BB0F40F4FD
:10192000BF2B11F460FF04C06F5F7F4F8F4F9F4F3D
:10193000089557FD9058440F551F59F05F3F71F0BF
:101940004795880F97FB991F61F09F3F79F0879526
:101950000895121613061406551FF2CF4695F1DFAF
:1019600008C0161617061806991FF1CF869571053F
:10197000610508940895E5DFA0F0BEE7B91788F483
:10198000BB279F3860F41616B11D672F782F882764
:10199000985FF7CF869577956795B11D93959639A2
:1019A000C8F30895E894BB2766277727CB0197F9FA
:1019B00008950BD0ADCF9EDF28F0A3DF18F095235C
:1019C00009F066CF94CF1124EECFB3DFA0F3959F3B
:1019D000D1F3950F50E0551F629FF001729FBB2716
:1019E000F00DB11D639FAA27F00DB11DAA1F649FC2
:1019F0006627B00DA11D661F829F2227B00DA11D75
:101A0000621F739FB00DA11D621F839FA00D611DFA
:101A1000221F749F3327A00D611D231F849F600D1B
:101A2000211D822F762F6A2F11249F5750408AF054
:101A3000E1F088234AF0EE0FFF1FBB1F661F771FE0
:101A4000881F91505040A9F79E3F510570F020CF5C
:101A5000AACF5F3FECF3983EDCF3869577956795C8
:101A6000B795F795E7959F5FC1F7FE2B880F911DFE
:101A70009695879597F90895A0E0B0E0E2E4FDE03F
:101A80000C94DF0FFE013596619171918091A10157
:101A90009091A201AF010E94510D2096E2E00C94BA
:101AA000FB0FADE0B0E0E7E5FDE00C94CF0F3C01AB
:101AB0007D876C875A01FC0117821682838181FF22
:101AC000C8C12E010894411C511CF3019381EC857F
:101AD000FD8593FD859193FF8191FD87EC87882398
:101AE00009F4B3C1853241F493FD859193FF81914F
:101AF000FD87EC87853229F490E0B3010E94450F01
:101B0000E4CFFF24EE2410E01032B0F48B3269F001
:101B10008C3228F4803251F0833271F40BC08D3254
:101B200039F0803349F411602CC01260146029C070
:101B3000186027C0106125C017FD2EC0282F205324
:101B40002A3098F416FF08C08F2D880FF82EFF0C4E
:101B5000FF0CF80EF20E15C08E2D880FE82EEE0C3D
:101B6000EE0CE80EE20E10620CC08E3221F416FD6F
:101B70006CC1106406C08C3611F4106802C088363F
:101B800059F4EC85FD8593FD859193FF8191FD8747
:101B9000EC87882309F0B8CF982F9554933018F02C
:101BA0009052933038F424E030E0A20EB31E3FE3AD
:101BB00039830FC0833631F0833781F0833509F0E4
:101BC0005AC022C0F5018081898322E030E0A20E54
:101BD000B31E21E0C22ED12C420114C092E0292E66
:101BE000312C2A0C3B1CF5018080918016FF03C02C
:101BF0006F2D70E002C06FEF7FEFC4010E943A0FBB
:101C00006C0151011F7715C082E0282E312C2A0C5F
:101C10003B1CF5018080918016FF03C06F2D70E0A2
:101C200002C06FEF7FEFC4010E942F0F6C0110689C
:101C3000510113FD1CC006C080E290E0B3010E9478
:101C4000450FEA948E2D90E0C816D906A8F30FC070
:101C5000F40117FD859117FF81914F0190E0B301C9
:101C60000E94450FE110EA940894C108D108C114FC
:101C7000D10471F7E7C0843611F0893651F5F501CA
:101C800017FF07C080819181A281B38124E030E0F9
:101C900008C080819181AA2797FDA095BA2F22E0E4
:101CA00030E0A20EB31E012F0F76B7FF08C0B0952B
:101CB000A095909581959F4FAF4FBF4F0068BC0195
:101CC000CD01A2012AE030E00E94710FD82ED41875
:101CD0003FC0853721F41F7E2AE030E020C0197F05
:101CE0008F36A9F0803720F4883509F0AEC00BC0DC
:101CF000803721F0883709F0A8C001C0106114FFB7
:101D000009C0146007C014FF08C0166006C028E0B0
:101D100030E005C020E130E002C020E132E0F50112
:101D200017FF07C0608171818281938144E050E098
:101D300006C06081718180E090E042E050E0A40E36
:101D4000B51EA2010E94710FD82ED418012F0F7753
:101D500006FF09C00E7FDF1430F404FF06C002FD49
:101D600004C00F7E02C01D2D01C01F2D802F90E0EA
:101D700004FF0CC0FE01ED0DF11D2081203311F494
:101D8000097E09C002FF06C01E5F05C086789070FC
:101D9000009709F01F5F802E992403FD12C000FFF9
:101DA0000DC0FD2C1E1550F4FE0CF11A1E2D06C0A0
:101DB00080E290E0B3010E94450F1F5F1E15C0F343
:101DC00004C01E1510F4E11A01C0EE2484FE0FC0F9
:101DD00080E390E0B3010E94450F82FE1FC081FEA8
:101DE00003C088E590E010C088E790E00DC0C40112
:101DF00086789070009791F081FC02C080E201C06B
:101E00008BE207FD8DE290E0B3010E94450F06C012
:101E100080E390E0B3010E94450FFA94DF14C0F311
:101E2000DA94F201ED0DF11D808190E0B3010E9482
:101E3000450FDD20A9F706C080E290E0B3010E94C3
:101E4000450FEA94EE20C1F740CEF30186819781D9
:101E500002C08FEF9FEF2D96E2E10C94EB0FFC0197
:101E60000590615070400110D8F7809590958E0FC5
:101E70009F1F0895FC016150704001900110D8F738
:101E8000809590958E0F9F1F08950F931F93CF936A
:101E9000DF938C01EB018B8181FF1BC082FF0DC0A2
:101EA0002E813F818C819D812817390764F4E88158
:101EB000F9810193F983E88306C0E885F985802FCD
:101EC0000995009731F48E819F8101969F838E83BF
:101ED00002C00FEF1FEFC801DF91CF911F910F914B
:101EE0000895FA01AA27283051F1203181F1E894B0
:101EF0006F936E7F6E5F7F4F8F4F9F4FAF4FB1E0FD
:101F00003ED0B4E03CD0670F781F891F9A1FA11DF7
:101F1000680F791F8A1F911DA11D6A0F711D811DF8
:101F2000911DA11D20D009F468943F912AE0269FBD
:101F300011243019305D3193DEF6CF010895462F1C
:101F40004770405D4193B3E00FD0C9F7F6CF462FFD
:101F50004F70405D4A3318F0495D31FD4052419366
:101F600002D0A9F7EACFB4E0A69597958795779523
:101F70006795BA95C9F700976105710508959B01AA
:101F8000AC010A2E06945795479537952795BA9533
:101F9000C9F7620F731F841F951FA01D08952F920C
:101FA0003F924F925F926F927F928F929F92AF92E9
:101FB000BF92CF92DF92EF92FF920F931F93CF9336
:101FC000DF93CDB7DEB7CA1BDB0B0FB6F894DEBFCD
:101FD0000FBECDBF09942A88398848885F846E84F3
:101FE0007D848C849B84AA84B984C884DF80EE803D
:101FF000FD800C811B81AA81B981CE0FD11D0FB646
:10200000F894DEBF0FBECDBFED010895F894FFCF69
:10201000436173652054656D703A2025660A00009F
:00000001FF
